:020000042000DA
:1000000019481A49086006C881F30888104718483B
:100010000068002823D11749174A002000E001C1D9
:100020009142FCD1154988471549884715498847A9
:1000300000BEFDE7207C0120207C0120107D0120F6
:100040000000042000000420000004200010042010
:1000500000100420001004200000000070470A482F
:100060000AF04CFD004700000001002008ED00E010
:10007000000000D0107D0120C0B002208DA900201A
:10008000F16E002069AA0020575600000600525069
:10009000ABB36053847B012006005250861C0302E0
:1000A0008C7B0120060052505422A29D9C7B012093
:1000B000F2EB8871047C0120207C012034000020B8
:1000C00090A31AE7000000000000000000000000FC
:1000D0000000000000000000000000000000000020
:1000E0000000000000000000000000000000000010
:1000F0000000000000000000000000000000000000
:10010000002004200F000020C3010020C5010020B2
:10011000C1010020C1010020C1010020C101002057
:10012000C1010020C1010020C1010020C701002041
:10013000C1010020C1010020C9010020CB01002025
:10014000CD010020CD010020CD010020CD010020F7
:10015000CD010020CD010020CD010020CD010020E7
:10016000CD010020CD010020CD010020CD010020D7
:10017000CD010020CD010020CD010020CD010020C7
:10018000CD010020CD010020CD010020CD010020B7
:10019000CD010020CD010020CD010020CD010020A7
:1001A000CD010020CD010020CD010020CD01002097
:1001B000CD010020CD010020CD010020CD01002087
:1001C00000BE00BE00BE00BE00BE00BEEFF3058054
:1001D000103800BEF0B5C646150000B504001E007C
:1001E0000268EFF3108172B61368002BFCD0BFF3E6
:1001F0005F8F0423E356002B2DDB2268BFF35F8F54
:100200000020106081F31088D0221206127852B2BA
:1002100090469A4203D1002080BCB846F0BD00272A
:100220000BE02368BFF35F8F1F6081F31088280005
:10023000310009F06BFD0028EDD12268EFF3108149
:1002400072B61368002BFCD0BFF35F8F23797F2B2E
:10025000E7D9434602E0D0231B061B6823712368BD
:10026000BFF35F8F00221A6081F310880120D3E76B
:100270000268EFF3108172B61368002BFCD0BFF355
:100280005F8FFF2303710368BFF35F8F00221A6043
:1002900081F3108840BF7047F0B54F464646D646BA
:1002A0008946C0B50600181E1BD01D001C00022385
:1002B000984602339C46002D18D02B000833414647
:1002C000F76839421FD0A3421DD901214B468A4607
:1002D0001B78013DB360D1442B00002C08D1002BCA
:1002E000E9D1E0BCBA46B146A846F0BD002CF8D032
:1002F0006346F7683B42DED0B368013C13702300CD
:1003000001322B43EBE7002CF2D1D8E730B50400E3
:10031000101E0AD00A000D180221E3681942FCD011
:1003200013780132A3609542F7D1E3685B0704D5E7
:100330000421A368E3681942FBD11021E368194244
:10034000FCD1E3685B0704D50421A368E368194284
:10035000FBD10123236230BDFF2806D8FF2904D832
:10036000024B09021B6859180A547047247C01206B
:10037000F0B508244E4645465746DE46A446E0B54D
:10038000150087B0021D0292421D0492821DDE00FC
:100390000392431CC21D8C4499460592831C0A0299
:1003A00098468246C31C12186046644C9C46761AD6
:1003B00001905EE05746FF2F04D8FF2902D800279E
:1003C000206887545F0663D44F46FF2F05D8FF2966
:1003D00003D820688718002078709F0662D44746AB
:1003E000FF2F05D8FF2903D8206887180020B87090
:1003F000DF0661D46746FF2F05D8FF2903D82068A0
:1004000087180020F8701F0760D4029FFF2F06D8BE
:10041000FF2904D80020494F3F68BF1838715F0793
:100420005FD4049FFF2F06D8FF2904D80020434F34
:100430003F68BF1878719F075ED4039FFF2F06D8CF
:10044000FF2904D800203D4F3F68BF18B871DB0773
:100450005DD4059BFF2B06D8FF2904D80027374B16
:100460001B689B18DF71019B01320131FF328B4207
:100470005CD0334B9F197B5C7F56002F9ADA57462E
:10048000FF2F9FD8FF299DD8206885545F069BD5F4
:100490004F46FF2FA1D8FF299FD8206887187D706D
:1004A0009F069CD54746FF2FA2D8FF29A0D82068D9
:1004B0008718BD70DF069DD56746FF2FA3D8FF299B
:1004C000A1D820688718FD701F079ED5029FFF2FB7
:1004D000A5D8FF29A3D8194F3F68BF183D715F0702
:1004E0009FD5049FFF2FA6D8FF29A4D8134F3F689C
:1004F000BF187D719F07A0D5039FFF2FA7D8FF29A5
:10050000A5D80E4F3F68BF18BD71DB07A1D5059B6D
:10051000FF2BA8D8FF29A6D8084B01311B689B18D0
:10052000DD71019B0132FF328B42A2D107B0F0BCDA
:10053000BB46B246A946A046F0BDC046247C012079
:10054000BC3A0120F0B508244E4645465746DE46E3
:10055000A446E0B5150087B0021D0292421D049228
:10056000821DDE000392431CC21D8C4499460592F5
:10057000831C0A0298468246C31C12186046644CCB
:100580009C46761A01905EE05746FF2F04D8072953
:1005900002D80027206887545F0663D44F46FF2F98
:1005A00005D8072903D820688718002078709F068F
:1005B00062D44746FF2F05D8072903D8206887183B
:1005C0000020B870DF0661D46746FF2F05D80729E1
:1005D00003D8206887180020F8701F0760D4029F96
:1005E000FF2F06D8072904D80020494F3F68BF18BD
:1005F00038715F075FD4049FFF2F06D8072904D8FE
:100600000020434F3F68BF1878719F075ED4039F57
:10061000FF2F06D8072904D800203D4F3F68BF1898
:10062000B871DB075DD4059BFF2B06D8072904D8DA
:100630000027374B1B689B18DF71019B013201318A
:10064000FF328B425CD0334B9F197B5C7F56002F6F
:100650009ADA5746FF2F9FD807299DD820688554DE
:100660005F069BD54F46FF2FA1D807299FD820684A
:1006700087187D709F069CD54746FF2FA2D8072973
:10068000A0D820688718BD70DF069DD56746FF2F6C
:10069000A3D80729A1D820688718FD701F079ED509
:1006A000029FFF2FA5D80729A3D8194F3F68BF186D
:1006B0003D715F079FD5049FFF2FA6D80729A4D8B7
:1006C000134F3F68BF187D719F07A0D5039FFF2F71
:1006D000A7D80729A5D80E4F3F68BF18BD71DB0703
:1006E000A1D5059BFF2BA8D80729A6D8084B013117
:1006F0001B689B18DD71019B0132FF328B42A2D136
:1007000007B0F0BCBB46B246A946A046F0BDC04605
:10071000207C0120BC3A0120F8B51C001B780500A4
:100720000F001600002B09D02800320039000134D8
:10073000FFF708FF23780835002BF5D1F8BDC04638
:10074000F0B5C64605000F0090461C0000B5092B09
:1007500031D9632B31D9FA239B009C4233D3234BED
:100760009C4233D9224B9C4233D9224B9C4233D9F1
:10077000214B9C4233D9214B9C4233D9204B4820FA
:100780009C421DD92D1820000A210AF011FA0B00F5
:100790003033280042463900DBB2FFF7D3FE200099
:1007A0000A210AF005FA2600083D0400092EEAD8BD
:1007B00080BCB846F0BD0020E4E70120C000E1E7BE
:1007C0004038C000DEE70220C000DBE70320C000A5
:1007D000D8E70420C000D5E70520C000D2E70620F6
:1007E000C000CFE70720C000CCE7C0460F270000BD
:1007F0009F8601003F420F007F969800FFE0F505BD
:10080000FFC99A3B8022074B52001A8000230649F9
:100810000B8006490B8006490A80064A1380064A67
:1008200013807047A4B00220A6B00220A8B0022016
:10083000AAB00220A0B00220A2B00220F0B54E461D
:1008400057464546DE46C9B2E0B50E00040010002A
:10085000DA00394B083683B0D218F3B20193FF2384
:1008600023409946631CDBB29846A31CDBB29C462E
:10087000324F002555571378002D05DA3E680D02DA
:10088000B2464E465544A8555D0605D53E680D0254
:10089000B24646465544A8559D0606D50E02B246B8
:1008A0006646264D2D685544A855DD0609D5234ECC
:1008B000E51C3668EDB2B2460E02B346DA4456463F
:1008C00070551D0709D51D4E251D3668EDB2B2467F
:1008D0000E02B346DA44564670555D0709D5174EE9
:1008E000651D3668EDB2B2460E02B346DA4456468E
:1008F00070559D0709D5114EA51D3668EDB2B2465B
:100900000E02B346DA4456467055DB0707D50E0291
:10091000B2460A4DE31D2D68DBB25544E85401315F
:10092000019BC9B201328B42A3D103B0F0BCBB46DC
:10093000B246A946A046F0BDBC3A0120247C012065
:10094000F0B54E46DE4657464546E0B50600100077
:100950001A7887B00493002A00D188E0F3B2DC1D36
:10096000E4B2A2469C1D0533DBB29846CBB2059398
:100970000833E4B2DBB2A1469C461100FF223240AC
:100980000192721CD2B20292B21CD2B20392320015
:10099000049B664601330493384B94469B46C9003A
:1009A000059B594400240C570A78002C06DA344D74
:1009B0001C022D68AB46019D5C446055540606D56B
:1009C0002F4D1C022D68AB46029D5C446055940679
:1009D00006D52B4D1C022D68AB46039D5C4460552B
:1009E000D40608D564461F02BB46254D03342D6846
:1009F000E4B25D442855140708D564461F02BB467F
:100A00001F4D04342D68E4B25D442855540705D5C4
:100A10001B4C1D022468641945466055940705D592
:100A2000174C1D02246864194D466055D20705D540
:100A3000134A1C0212681219544610550133DBB2D6
:100A400001319E42AED16346B4461E00049B083677
:100A5000197853460833DBB29A464B460833DBB26B
:100A6000994643460833DBB29846002986D107B041
:100A7000F0BCBB46B246A946A046F0BDBC3A012038
:100A8000247C0120F0B54E46DE4657464546E0B58B
:100A900014000600994689B0092B00D8B7E0632BF3
:100AA00000D8B6E0FA239B00994500D2B4E0654B2C
:100AB000994500D8C2E0644B994500D8BBE0634B30
:100AC000994500D8B4E0624B994500D8ADE0614B40
:100AD000994500D8A6E0604A4823914500D89EE099
:100AE000F618F3B2DA1DD2B203929A1DD2B293462F
:100AF0005A1DD2B292460433DBB20293CBB20793B3
:100B0000564D0833DFB20A2148460AF051F8FF2259
:100B1000534BB0469C4632400492721CD2B23031E4
:100B2000C9B20592B21CC900D2B2079B61440692B9
:100B3000002008560A78002805DA2E681802B44604
:100B4000049E60448455500605D52E681802B446AC
:100B5000059E60448455900605D52E681802B4465B
:100B6000069E60448455D0060AD540460330C0B284
:100B7000019018028446394E019836686644345410
:100B8000100705D535481E0200688019029E84555D
:100B9000500705D531481E02006880195646845515
:100BA000900705D52D481E02006880195E468455C1
:100BB000D20705D5294A180212681218039814544E
:100BC0000133DBB20131BB42B2D10A21484609F000
:100BD000EFFF039B4646083BDBB203935B46083BB3
:100BE000DBB29B465346083BDBB29A46029B083E6B
:100BF000083BDBB202934B46092B01D9814682E7C1
:100C000009B0F0BCBB46B246A946A046F0BD0023E1
:100C100066E70123DB0063E70223DB0060E7403B7C
:100C2000DB005DE70723DB005AE70623DB0057E71D
:100C30000523DB0054E70423DB0051E70323DB003B
:100C40004EE7C0460F2700009F8601003F420F007D
:100C50007F969800FFE0F505FFC99A3B247C0120B0
:100C6000BC3A0120F0B54546DE4657464E46E0B553
:100C70001D00324B09021B6883B0081814001B18B2
:100C80000C9A002D4BD080214900091B002C46D026
:100C900003202700874338000130C0B2009038009D
:100CA0000230C0B2019003208846611E8246C9B25C
:100CB000053088428941494289460221BC468B461B
:100CC000A608A04411005046194301404842414142
:100CD000484608422AD0571C00210020DF1BBB4594
:100CE00024D217580131C9B21F5004308E42F8D1B6
:100CF00061465018591864450BD007780F70009F53
:100D0000BC4206D947784F70019FBC4201D9807818
:100D10008870013DEDB212194344002DD2D103B0C9
:100D2000F0BCBB46B246A946A046F0BD0021505CCF
:100D300058540131C8B28442F9D8EAE7207C012036
:100D4000F0B54F464646D646C0B59146089A844609
:100D50000F009046002B1AD04A46002A17D00500F3
:100D6000CB18DBB29A464D440B4EEDB2634641467A
:100D70003C02326808781219D0540133DBB20131D9
:100D8000AB42F6D10137FFB2C8445745EED1E0BCC3
:100D9000BA46B146A846F0BD247C0120F0B54F46C6
:100DA0004646D646C0B59146089A84460D00904600
:100DB000002B1CD04A46002A19D00400CB18DBB205
:100DC0009A464C440C4FE4B2634642462E021178D8
:100DD000002902D038688019C1540133DBB20132D6
:100DE000A342F4D10135EDB2C844AA45ECD1E0BC30
:100DF000BA46B146A846F0BD247C0120F0B5454670
:100E0000DE4657464E46E0B5804683B0C046C046F3
:100E1000C046D02580262D06B6016E61C046C0466C
:100E2000C046C046C046C0468027FF006F61C0462E
:100E3000C046C046C046C046C046802424016C61FE
:100E4000C046C046C046012008F046FFC046C04626
:100E5000C046AC61C046C046C0460A2008F03CFF10
:100E6000C046C046C0466C61C046C046C0467820F9
:100E700008F032FF6B46DC1DCB232370C046C04612
:100E8000C046AF61C046C046C046C046C046C04628
:100E9000AE61C046C046C046012221009B48FFF714
:100EA00035FAC046C046C0466E61C046C046C04620
:100EB00039232370C046C046C0466F61C046C04655
:100EC000C046C046C046C046AE61C046C046C046E9
:100ED000012221008D48FFF719FAC046C046C046DE
:100EE0006E61C046C046C0462C232370C046C04633
:100EF000C0466F61C046C046C046C046C046C046F8
:100F0000AE61C046C046C046012221007F48FFF7BF
:100F1000FDF9C046C046C0466E61C046C046C046E8
:100F2000002399462370C046C046C0466F61C04644
:100F3000C046C046C046C046C046AE61C046C04678
:100F4000C046012221007148FFF7E0F9C046C046C3
:100F5000C0466E61C046C046C04634232370C046BA
:100F6000C046C0466F61C046C046C046C046C04687
:100F7000C046AE61C046C046C0460122210063485B
:100F8000FFF7C4F9C046C046C0466E61C046C046C1
:100F9000C04602239A462370C046C046C0466F61D1
:100FA000C046C046C046C046C046C046AE61C04608
:100FB000C046C046012221005448FFF7A7F9C046A9
:100FC000C046C0466E61C046C046C046CF232370AF
:100FD000C046C046C046AF61C046C046C046C046D7
:100FE000C046C046AE61C046C046C0460122210090
:100FF0004648FFF78BF9C046C046C0466E61C04602
:10100000C046C0464B462370C046C046C0466F61CE
:10101000C046C046C046C046C046C046AE61C04697
:10102000C046C046012221003848FFF76FF9C0468C
:10103000C046C0466E61C046C046C046C1239B46FE
:101040002370C046C046C0466F61C046C046C04619
:10105000C046C046C046AE61C046C046C04601223A
:1010600021002A48FFF752F9C046C046C0466E61CB
:10107000C046C046C04630232370C046C046C04666
:101080006F61C046C046C046C046C046C046AE615D
:10109000C046C046C046012221001C48FFF736F971
:1010A000C046C046C0466E61C046C046C046E82342
:1010B0002370C046C046C046AF61C046C046C04669
:1010C000C046C046C046AE61C046C046C0460122CA
:1010D00021000E48FFF71AF9C046C046C0466E61AF
:1010E000C046C046C04685232370C046C046C046A1
:1010F0006F61C046C046C046C046C046C046AE61ED
:10110000C046C046C046012202E0C046000004407E
:1011100021009A48FFF7FAF8C046C046C0466E6103
:10112000C046C046C0464B462370C046C046C04677
:101130006F61C046C046C046C046C046C046AE61AC
:10114000C046C046C046012221008C48FFF7DEF8A9
:10115000C046C046C0466E61C046C046C046782301
:101160002370C046C046C0466F61C046C046C046F8
:10117000C046C046C046AE61C046C046C046012219
:1011800021007E48FFF7C2F8C046C046C0466E61E7
:10119000C046C046C046EA232370C046C046C0468B
:1011A000AF61C046C046C046C046C046C046AE61FC
:1011B000C046C046C046012221007048FFF7A6F88D
:1011C000C046C046C0466E61C046C046C0464B469B
:1011D0002370C046C046C0466F61C046C046C04688
:1011E000C046C046C046AE61C046C046C0460122A9
:1011F00021006248FFF78AF8C046C046C0466E61CB
:10120000C046C046C0464B462370C046C046C04696
:101210006F61C046C046C046C046C046C046AE61CB
:10122000C046C046C046012221005448FFF76EF870
:10123000C046C046C0466E61C046C046C046ED23AB
:101240002370C046C046C046AF61C046C046C046D7
:10125000C046C046C046AE61C046C046C046012238
:1012600021004648FFF752F8C046C046C0466E61AE
:10127000C046C046C04664232370C046C046C04630
:101280006F61C046C046C046C046C046C046AE615B
:10129000C046C046C046012221003848FFF736F854
:1012A000C046C046C0466E61C046C046C046032325
:1012B0002370C046C046C0466F61C046C046C046A7
:1012C000C046C046C046AE61C046C046C0460122C8
:1012D00021002A48FFF71AF8C046C046C0466E6192
:1012E000C046C046C04612232370C046C046C04612
:1012F0006F61C046C046C046C046C046C046AE61EB
:10130000C046C046C046012221001C48FEF7FEFF31
:10131000C046C046C0466E61C046C046C046812336
:101320002370C046C046C0466F61C046C046C04636
:10133000C046C046C046AE61C046C046C046012257
:1013400021000E48FEF7E2FFC046C046C0466E616F
:10135000C046C046C046F7232370C046C046C046BC
:10136000AF61C046C046C046C046C046C046AE613A
:10137000C046C046C0460122210001E000000440F2
:101380009B48FEF7C3FFC046C046C0466E61C046DC
:10139000C046C04620232370C046C046C0466F6189
:1013A000C046C046C046C046C046C046AE61C04604
:1013B000C046C046012221008D48FEF7A7FFC04667
:1013C000C046C0466E61C046C046C046C0232370BA
:1013D000C046C046C046AF61C046C046C046C046D3
:1013E000C046C046AE61C046C046C046012221008C
:1013F0007F48FEF78BFFC046C046C0466E61C046C0
:10140000C046C04623232370C046C046C0466F6115
:10141000C046C046C046C046C046C046AE61C04693
:10142000C046C046012221007148FEF76FFFC0464A
:10143000C046C0466E61C046C046C0465B4623708B
:10144000C046C046C046AF61C046C046C046C04662
:10145000C046C046AE61C046C046C046012221001B
:101460006348FEF753FFC046C046C0466E61C046A3
:10147000C046C04610232370C046C046C0466F61B8
:10148000C046C046C046C046C046C046AE61C04623
:10149000C046C046012221005548FEF737FFC0462E
:1014A000C046C0466E61C046C046C046C5232370D4
:1014B000C046C046C046AF61C046C046C046C046F2
:1014C000C046C046AE61C046C046C04601222100AB
:1014D0004748FEF71BFFC046C046C0466E61C04687
:1014E000C046C0463E232370C046C046C0466F611A
:1014F000C046C046C046C046C046C046AE61C046B3
:10150000C046C046012221003948FEF7FFFEC04612
:10151000C046C0466E61C046C046C0462823237000
:10152000C046C046C0466F61C046C046C046C046C1
:10153000C046C046AE61C046C046C046012221003A
:101540002B48FEF7E3FEC046C046C0466E61C0466B
:10155000C046C046C7232370C046C046C046AF61E0
:10156000C046C046C046C046C046C046AE61C04642
:10157000C046C046012221001D48FEF7C7FEC046F6
:10158000C046C0466E61C046C046C0468623237032
:10159000C046C046C0466F61C046C046C046C04651
:1015A000C046C046AE61C046C046C04601222100CA
:1015B0000F48FEF7ABFEC046C046C0466E61C0464F
:1015C000C046C04642460B4B1A6036232370C046C5
:1015D000C046C046AF61C046C046C046C046C046D1
:1015E000C046AE61C046C046C046012204E0C046C7
:1015F000000004405084012021000A48FEF786FEC6
:10160000C046C046C0466E61C046C046C04643465E
:10161000DB0709D453464246134201D100F0A8FD2E
:10162000863308E00000044053464246134201D08E
:1016300000F09BFD0C232370C046C046C0466F617E
:10164000C046C046C046C046C046C046AE61C04661
:10165000C046C046012221009C48FEF757FEC04606
:10166000C046C0466E61C046C046C04637232370A0
:10167000C046C046C046D02580272D06FF00AF617A
:10168000C046C046C046C046C046C0468026B601D9
:10169000AE61C046C046C046012221008B48FEF71D
:1016A00035FEC046C046C0466E61C046C046C04614
:1016B000002398462370C046C046C0466F61C046AE
:1016C000C046C046C046C046C046AE61C046C046E1
:1016D000C046012221007D48FEF718FEC046C046E4
:1016E000C0466E61C046C046C04643462370C046F1
:1016F000C046C0466F61C046C046C046C046C046F0
:10170000C046AE61C046C046C046012221006F48B7
:10171000FEF7FCFDC046C046C0466E61C046C046EE
:10172000C0463A2399462370C046C046C046AF61C2
:10173000C046C046C046C046C046C046AE61C04670
:10174000C046C046012221006048FEF7DFFDC046CA
:10175000C046C0466E61C046C046C0465523237091
:10176000C046C046C0466F61C046C046C046C0467F
:10177000C046C046AE61C046C046C04601222100F8
:101780005248FEF7C3FDC046C046C0466E61C04623
:10179000C046C046B1232370C046C046C046AF61B4
:1017A000C046C046C046C046C046C046AE61C04600
:1017B000C046C046012221004448FEF7A7FDC046AE
:1017C000C046C0466E61C046C046C0464346237010
:1017D000C046C046C0466F61C046C046C046C0460F
:1017E000C046C046AE61C046C046C0460122210088
:1017F0003648FEF78BFDC046C046C0466E61C04607
:10180000C046C04618232370C046C046C0466F611C
:10181000C046C046C046C046C046C046AE61C0468F
:10182000C046C046012221002848FEF76FFDC04691
:10183000C046C0466E61C046C046C046B62323704F
:10184000C046C046C046AF61C046C046C046C0465E
:10185000C046C046AE61C046C046C0460122210017
:101860001A48FEF753FDC046C046C0466E61C046EA
:10187000C046C0460A239A462370C046C046C046AA
:101880006F61C046C046C046C046C046C046AE6155
:10189000C046C046C046012221000C48FEF736FD76
:1018A000C046C046C0466E61C046C046C0468223A0
:1018B0002370C046C046C0466F61C046C046C046A1
:1018C000C046C046C046AE6102E0C04600000440CB
:1018D000C046C046C046012221009B48FEF716FDC7
:1018E000C046C046C0466E61C046C046C0462723BB
:1018F0002370C046C046C0466F61C046C046C04661
:10190000C046C046C046AE61C046C046C046012281
:1019100021008D48FEF7FAFCC046C046C0466E6105
:10192000C046C046C04643462370C046C046C04677
:101930006F61C046C046C046C046C046C046AE61A4
:10194000C046C046C046012221007F48FEF7DEFCAB
:10195000C046C046C0466E61C046C046C04626234B
:101960002370C046C046C046AF61C046C046C046B0
:10197000C046C046C046AE61C046C046C046012211
:1019800021007148FEF7C2FCC046C046C0466E61E9
:10199000C046C046C04601232370C046C046C0466C
:1019A0006F61C046C046C046C046C046C046AE6134
:1019B000C046C046C046012221006348FEF7A6FC8F
:1019C000C046C046C0466E61C046C046C046E02321
:1019D0002370C046C046C046AF61C046C046C04640
:1019E000C046C046C046AE61C046C046C0460122A1
:1019F00021005548FEF78AFCC046C046C0466E61CD
:101A0000C046C046C0460F232370C046C046C046ED
:101A10006F61C046C046C046C046C046C046AE61C3
:101A2000C046C046C046012221004748FEF76EFC72
:101A3000C046C046C0466E61C046C046C0464A4623
:101A40002270C046C046C0466F61C046C046C04610
:101A5000C046C046C046AE61C046C046C0463A48D1
:101A60002100393AFEF752FCC046C046C0466E61BE
:101A7000C046C046C04636232370C046C046C04656
:101A80006F61C046C046C046C046C046C046AE6153
:101A9000C046C046C046012221002B48FEF736FC56
:101AA000C046C046C0466E61C046C046C0460B2216
:101AB0002270C046C046C0466F61C046C046C046A0
:101AC000C046C046C046AE61C046C046C0461E487D
:101AD00021000A3AFEF71AFCC046C046C0466E61B5
:101AE000C046C046C0460D232370C046C046C0460F
:101AF0006F61C046C046C046C046C046C046AE61E3
:101B0000C046C046C046012221000F48FEF7FEFB3A
:101B1000C046C046C0466E61C046C046C0460621AB
:101B20008B462170C046C046C0466F61C046C04665
:101B3000C046C046C046C046AE61C046C046C0466C
:101B40000122210002E0C046000004409A48FEF74E
:101B5000DDFBC046C046C0466E61C046C046C046BA
:101B60004C232370C046C046C0466F61C046C04685
:101B7000C046C046C046C046AE61C046C046C0462C
:101B8000012221008C48FEF7C1FBC046C046C0467A
:101B90006E61C046C046C04691232370C046C04611
:101BA000C0466F61C046C046C046C046C046C0463B
:101BB000AE61C046C046C046012221007E48FEF705
:101BC000A5FBC046C046C0466E61C046C046C04682
:101BD00031232370C046C046C0466F61C046C04630
:101BE000C046C046C046C046AE61C046C046C046BC
:101BF000012221007048FEF789FBC046C046C0465E
:101C00006E61C046C046C04608212170C046C0462D
:101C1000C0466F61C046C046C046C046C046C046CA
:101C2000AE61C046C046C046012221006248FEF7B0
:101C30006DFBC046C046C0466E61C046C046C04649
:101C400010232370C046C046C0466F61C046C046E0
:101C5000C046C046C046C046AE61C046C046C0464B
:101C6000012221005448FEF751FBC046C046C04641
:101C70006E61C046C046C04604232370C046C046BD
:101C8000C0466F61C046C046C046C046C046C0465A
:101C9000AE61C046C046C046012221004648FEF75C
:101CA00035FBC046C046C0466E61C046C046C04611
:101CB000112081462070C046C046C0466F61C046B4
:101CC000C046C046C046C046C046AE61C046C046DB
:101CD000C046012221003848FEF718FBC046C04626
:101CE000C0466E61C046C046C0460C232370C04645
:101CF000C046C0466F61C046C046C046C046C046EA
:101D0000C046AE61C046C046C046012221002A48F6
:101D1000FEF7FCFAC046C046C0466E61C046C046EB
:101D2000C04640462070C046C046C0466F61C046AF
:101D3000C046C046C046C046C046AE61C046C0466A
:101D4000C046012221001C48FEF7E0FAC046C0460A
:101D5000C0466E61C046C046C046E1232370C046FF
:101D6000C046C046AF61C046C046C046C046C04639
:101D7000C046AE61C046C046C046012221000E48A2
:101D8000FEF7C4FAC046C046C0466E61C046C046B3
:101D9000C04640462070C046C046C0466F61C0463F
:101DA000C046C046C046C046C046AE61C046C046FA
:101DB000C0460122210001E0000004409A48FEF7DD
:101DC000A5FAC046C046C0466E61C046C046C04681
:101DD00058462070C046C046C0466F61C046C046E7
:101DE000C046C046C046C046AE61C046C046C046BA
:101DF000012221008C48FEF789FAC046C046C04641
:101E00006E61C046C046C04650462070C046C046BF
:101E1000C0466F61C046C046C046C046C046C046C8
:101E2000AE61C046C046C046012221007E48FEF792
:101E30006DFAC046C046C0466E61C046C046C04648
:101E400005232370C046C046C0466F61C046C046E9
:101E5000C046C046C046C046AE61C046C046C04649
:101E6000012221007048FEF751FAC046C046C04624
:101E70006E61C046C046C04612232370C046C046AD
:101E8000C0466F61C046C046C046C046C046C04658
:101E9000AE61C046C046C046012221006248FEF73E
:101EA00035FAC046C046C0466E61C046C046C04610
:101EB00009232370C046C046C0466F61C046C04675
:101EC000C046C046C046C046AE61C046C046C046D9
:101ED000012221005448FEF719FAC046C046C04608
:101EE0006E61C046C046C0462C232370C046C04623
:101EF000C0466F61C046C046C046C046C046C046E8
:101F0000AE61C046C046C046012221004648FEF7E9
:101F1000FDF9C046C046C0466E61C046C046C046D8
:101F200092232370C046C046C0466F61C046C0467B
:101F3000C046C046C046C046AE61C046C046C04668
:101F4000012221003848FEF7E1F9C046C046C046EC
:101F50006E61C046C046C0463F232370C046C0469F
:101F6000C0466F61C046C046C046C046C046C04677
:101F7000AE61C046C046C046012221002A48FEF795
:101F8000C5F9C046C046C0466E61C046C046C046A0
:101F900008212170C046C046C0466F61C046C04699
:101FA000C046C046C046C046AE61C046C046C046F8
:101FB000012221001C48FEF7A9F9C046C046C046D0
:101FC0006E61C046C046C0460E232370C046C04660
:101FD000C0466F61C046C046C046C046C046C04607
:101FE000AE61C046C046C046012221000E48FEF741
:101FF0008DF9C046C046C0466E61C046C046C04668
:102000000B222270C046C046C0466F61C046C04623
:10201000C046C046C046C046AE61C046C046C04687
:10202000014821000A3A01E000000440FEF76EF981
:10203000C046C046C0466E61C046C046C0462E235C
:102040002370C046C046C0466F61C046C046C04609
:10205000C046C046C046AE61C046C046C04601222A
:1020600021004548FEF752F9C046C046C0466E61A1
:10207000C046C046C04633232370C046C046C04653
:102080006F61C046C046C046C046C046C046AE614D
:10209000C046C046C046012221003748FEF736F947
:1020A000C046C046C0466E61C046C046C0460F230B
:1020B0002370C046C046C0466F61C046C046C04699
:1020C000C046C046C046AE61C046C046C0460122BA
:1020D00021002948FEF71AF9C046C046C0466E6185
:1020E000C046C046C0464B462370C046C046C046A8
:1020F000AF61C046C046C046C046C046C046AE619D
:10210000C046C046C046012221001B48FEF7FEF82B
:10211000C046C046C0466E61C046C046C046782034
:1021200007F0DAFD29232370C046C046C046AF61E0
:10213000C046C046C046C046C046C046AE61C04666
:10214000C046C046012221000B48FEF7DFF8C0461A
:10215000C046C0466E61C046C046C04603B0F0BC33
:10216000BB46B246A946A046F0BDC823FFF763FAB6
:102170004C23FFF760FAC04600000440F0B5964AD1
:10218000CE46474612680123110080B519408146AA
:10219000884683B01A4200D126E16B469F1D2A2350
:1021A0003B70C046C046C046D02480252406ED00C2
:1021B000A561C046C046C046C046C046C04680264F
:1021C000B601A661C046C046C04601223900834818
:1021D000FEF79CF8C046C046C0466661C046C04691
:1021E000C046C046C046C0466561C046C046C046FF
:1021F000C046C046C046A661C046C046C046002391
:102200009846022239003B807448FEF77FF8C046AA
:10221000C046C0466661C046C046C046C046C046CD
:10222000C0466561C046C046C046C046C046C046BE
:10223000A661C046C046C046694B022239003B80B9
:102240006648FEF763F8C046C046C0466661C046B1
:10225000C046C0462B233B70C046C046C046A56161
:10226000C046C046C046C046C046C046A661C0463D
:10227000C046C046012239005848FEF747F8C0461C
:10228000C046C0466661C046C046C046C046C0465D
:10229000C0466561C046C046C046C046C046C0464E
:1022A000A661C046C046C0464346022239003B8074
:1022B0004A48FEF72BF8C046C046C0466661C04695
:1022C000C046C046C046C046C0466561C046C0461E
:1022D000C046C046C046C046A661C046C046C046CD
:1022E000404B022239003B803C48FEF70FF8C046C5
:1022F000C046C0466661C046C046C0462C233B70FF
:10230000C046C046C046A561C046C046C046C0469D
:10231000C046C046A661C046C046C046012239003C
:102320002E48FDF7F3FFC046C046C0466661C04672
:10233000C046C046C046C046C046D02380221B06C9
:10234000D2005A61C046C046C046C046C046C046DC
:10235000802292019A61C046C046C0464B469620F4
:1023600002225CBA25041D4B2D0EE4B24002D9684E
:102370000A42FCD09C60D9680A42FCD001389D60BA
:102380000028F4D1DB685B0705D50422134B99685C
:10239000D9680A42FBD11022104BD9680A42FCD1FD
:1023A000DB685B0705D504220C4B9968D9680A42A3
:1023B000FBD10122094B1A62C046C046C046D02359
:1023C00080221B0692015A61C046C046C04603B037
:1023D000C0BCB946B046F0BD5084012000000440A6
:1023E00000EFFFFF013F00006B469F1D2A233B705B
:1023F000C046C046C046D02480252406ED00A56115
:10240000C046C046C046C046C046C0468026B6014B
:10241000A661C046C046C046012239000C48FDF7FF
:1024200075FFC046C046C0466661C046C046C0464D
:10243000C046C046C0466561C046C046C046C046AC
:10244000C046C046A661C046C046C0464346D8E620
:1024500000000440F0B54E46DE4657464546E0B51E
:10246000A04E89B03368DB0700D507E206AB9D1D9F
:102470002A232B70C046C046C046D02480232406A1
:10248000DB009846A361C046C046C046C046C04671
:10249000C0468027BF01A761C046C046C046012292
:1024A00029009148FDF732FFC046C046C04667612B
:1024B000C046C046C046C046C046C04643466361AB
:1024C000C046C046C046C046C046C046A761C046DA
:1024D000C046C046022229002F808348FDF716FF20
:1024E000C046C046C0466761C046C046C046C046FA
:1024F000C046C04643466361C046C046C046C0466B
:10250000C046C046A761C046C046C046774B0222BF
:1025100029002B807448FDF7F9FEC046C046C0462E
:102520006761C046C046C0462B232B70C046C046DC
:10253000C0464346A361C046C046C046C046C046EA
:10254000C046A761C046C046C04601222900664871
:10255000FDF7DCFEC046C046C0466761C046C046C7
:10256000C046C046C046C04643466361C046C046FA
:10257000C046C046C046C046A761C046C046C04629
:1025800080231B01022229002B805748FDF7BEFE45
:10259000C046C046C0466761C046C046C046C04649
:1025A000C046C04643466361C046C046C046C046BA
:1025B000C046C046A761C046C046C0464C4B02223A
:1025C00029002B804848FDF7A1FEC046C046C04602
:1025D0006761C046C046C0462C232B70C046C0462B
:1025E000C046D02780233F06DB009946BB61C0462A
:1025F000C046C046C046C046C04680239B019846A0
:10260000BB61C046C046C046374C012229002000AD
:10261000FDF77CFEC046C046C04643467B61C046CF
:10262000C046C0460F2223685A40CF231340802261
:102630005201224393461360C046C046C0464B46F3
:102640007B61C046C046C046C046C046C046434601
:10265000BB61C046C046C046264B1B880093264B34
:102660001B8801933368DB0700D4A9E00222234BC7
:10267000234E1B689946234B1B889846224B1B8888
:102680009C46224B1B880393214B1B880493214BB0
:102690001B6802930133FF33059380252D01AA4661
:1026A000029B1900534418000B785B00F55AE3684D
:1026B0001A42FCD00131FF31A5608142F4D13300D0
:1026C000D8254E46994601980099FF270300BB4341
:1026D0009BB20F0ABFB2F318DB5D4F465B00FB5A9B
:1026E0009A4619E05084012000000440011F0000B8
:1026F00000E7FFFFA0B00220A2B00220247C01204E
:1027000018800120A8B00220AAB00220A4B00220A4
:10271000A6B00220207C0120E3681A42FCD0534678
:1027200041446044013DA36089B280B2002DCCD108
:102730004B460399B1468A461E000499009B5344B8
:102740008A469BB20093019B059953449BB2019327
:10275000029B0133029399429FD19D4BDA68520745
:1027600004D504229968D9680A42FBD11022984BFB
:10277000D9680A42FCD1DB685B0705D50422944B7B
:102780009968D9680A42FBD10122914B1A62C0466E
:10279000C046C046D0228021120689015161C04640
:1027A000C046C04607221B685A40CF2313405A46F2
:1027B000136009B0F0BCBB46B246A946A046F0BDC6
:1027C000844B02221F6890231B019C467D1C824E75
:1027D000FF356744691EFF390B785B00F05AE368E8
:1027E0001A42FCD00131A060A942F5D14D1CFF3541
:1027F000BD42EFD1794B02211B68754A9946784B4F
:102800001B889846774B1B889C46774B1B88039305
:10281000764B1B880493D823029333004E46994687
:102820008025019C00986D00FF272300BB439BB2CD
:10283000070ABFB2F318DB5D4F465B00FB5A9A46AE
:10284000D3681942FCD0534640446444013D936030
:1028500080B2A4B2002DE7D10398009B8246049871
:10286000534482469BB20093019B53449BB2019315
:10287000029B013B0293002BD2D16EE706AB9D1D5C
:102880002A232B70C046C046C046D024802324068D
:10289000DB009846A361C046C046C046C046C0465D
:1028A000C0468027BF01A761C046C046C04601227E
:1028B00029004748FDF72AFDC046C046C04667616B
:1028C000C046C046C046C046C046C0464346636197
:1028D000C046C046C046C046C046C046A761C046C6
:1028E000C046C04680231B01022229002B803848A5
:1028F000FDF70CFDC046C046C0466761C046C046F5
:10290000C046C046C046C04643466361C046C04656
:10291000C046C046C046C046A761C046C046C04685
:10292000334B022229002B802948FDF7EFFCC046DB
:10293000C046C0466761C046C046C0462B232B70C8
:10294000C046C046C0464346A361C046C046C046D6
:10295000C046C046C046A761C046C046C046012228
:1029600029001B48FDF7D2FCC046C046C04667613F
:10297000C046C046C046C046C046C04643466361E6
:10298000C046C046C046C046C046C046A761C04615
:10299000C046C046022229002F800D48FDF7B6FC34
:1029A000C046C046C0466761C046C046C046C04635
:1029B000C046C04643466361C046C046C046C046A6
:1029C000C046C046A761C046C046C046094BF6E5B2
:1029D00000000440207C012018800120247C01207C
:1029E000A4B00220A6B00220A8B00220AAB0022003
:1029F00000E7FFFF011F00008022094B10B50021F6
:102A00001868520208F0D6FB8022064B0021186895
:102A1000120108F0CFFB0020FFF7B0FB10BDC0464D
:102A2000247C0120207C012010B5FC24E400D20885
:102A3000DB002340D2021A43C908024B40008A1827
:102A4000C25210BD1880012010B5FEF7D7F98022C0
:102A50001C4B00211868520208F0ACFB80221A4B74
:102A600000211868120108F0A5FB0020FFF786FB83
:102A7000F82316485B030360154BF0224360154BA7
:102A8000FF21836020235B42C36080235B030361DB
:102A9000114B52004361114B8361114BC3612030D4
:102AA00008F088FB80220F4B52001A8000230E4949
:102AB0000B800E490B800E490A800E4A13800E4A85
:102AC000138010BD247C0120207C0120188001206F
:102AD00000F81FF8E007FF070080108000041004D2
:102AE00000841084A4B00220A6B00220A8B0022066
:102AF000AAB00220A0B00220A2B00220F0B5574632
:102B00004E464546DE46624BE0B55A68FF21944684
:102B10009A6887B090461A7B1300403319405D4B8A
:102B200001911B78962105935B4BC9001B885200CD
:102B3000049300230393594B02925C18EC21890201
:102B400089467F218A4617E011004A4500DC72E081
:102B500053498B465A4441469E68881B25D4D82148
:102B60004902884200DD8EE00100A027FF01B94242
:102B700024DB1833A3424ED01A78012AF9D15A7CAB
:102B80000132D2B25A74002AF3D162465D68521BF8
:102B9000DAD56146691A49454DDD8021C9028B4667
:102BA00041469E685A44881BD9D5D827711A7F029E
:102BB000B942DADD802189028B4658445746D11745
:102BC00039408A18029F3749D211795E5746521808
:102BD000C117394009180198324F4000C05FC91130
:102BE000091A3148007883465F462F48002F28D1C4
:102BF00082812E4A01274261FF2202742C4A183337
:102C0000049201220392FC32077045608660C18104
:102C10000592A342B0D1039B002B05D01D4B059A12
:102C20001A701D4B049A1A8007B0F0BCBB46B2461E
:102C3000A946A046F0BDA020C001814200DA8AE783
:102C400097E7007E83465F4617481830002FCFD0A5
:102C50003020154F385C834638005F463030002FF7
:102C6000C6D04820104F385C834638005F46483055
:102C7000002FBDD060200C4F385C002800D078E7D2
:102C800038006030B4E70B498B46584496E7C0469D
:102C900054B00220BBB002209EB002207CA90220CA
:102CA0000000FCFF1C790120DCA302205C4801200D
:102CB000F82A00000000FEFF4A4BF0B51A88824255
:102CC00032D0188000284ED08022520190422CD25F
:102CD000454B46491C888C4200D16EE01980444B1C
:102CE00044491C68444EA3001D19AD0069180E61CB
:102CF00042496E1837684249324379400904090C49
:102D000011600F210209120108401043394A1B19B2
:102D100094469B0063445860AB181A680E3991437F
:102D20008022520113431960F0BD8023DB019842D9
:102D300029D22D4B33491C888C424BD019802C4B07
:102D40002C491C68304EA3001D19AD0069180E6196
:102D50002A4980086E1837682C49324379400904A3
:102D6000090C1160CDE7224B01211A6893009B18D2
:102D7000204A9B00944663441A6811408022520105
:102D800013431960D0E7184B21491C888C421AD094
:102D90001980174B17491C681E4EA3001D19AD0062
:102DA00069180E61154900096E1837681A493243CF
:102DB00079400904090C1160A3E70D4B1C68A300BE
:102DC0001D19AD009DE70A4B00091C68A3001D19E1
:102DD000AD0096E7064B80081C68A3001D19AD00E6
:102DE0008FE7C0469AB002209CB002203D0500004B
:102DF00040B00220000005403C0500000C000540EA
:102E00009E020000F4140000F31400007A0A00008F
:102E1000CF530000CE530000E7290000F8B5A04CC6
:102E2000237B002B20D1237A013BDBB22372002BC2
:102E300000D015E122681178FE2900D1C7E0FD29F4
:102E400002D1626822601178FF2900D1F0E0954B31
:102E50004900C85A6081FFF72FFF2268531C236086
:102E600053780232237222608F4A1378002B53D09A
:102E7000013BDBB21370002B00D06FE08B49237B4A
:102E80000A68002B4AD00020002A51D01388002B5A
:102E90004AD002320A60012B4AD0022B3BD0844A2E
:102EA0001188994237D01380002B47D080256D01BF
:102EB000AB4200D2A3E08022D201934200D26BE069
:102EC0007C4A7D491088884200D1E2E011807B4A2B
:102ED0007B4814687B4EA20011198900081806610E
:102EE00079480E1837687948354378400004000C5B
:102EF00028601B099BB27648121903407048920063
:102F00008446624453600B1801211A689143802261
:102F1000520113431960F8BD64490A680220002A6F
:102F2000F9D01388002BB4D10B60237B002B26D063
:102F30005F4B1A88002AEED000221A805F4B0121D5
:102F40001A6893009B185E4A9B00944663441A6873
:102F500011408022520113431960DCE75D4A127868
:102F6000002A0ED15C4A1088802B00D882E0030032
:102F70004B3B13804D490A68002A00D086E70300C6
:102F80008BE79A07C8D1544A1088802B76D9030062
:102F90002D3BFF3B1380EDE7464A5049108888429D
:102FA00071D01180454A464814684D4EA20011194F
:102FB00089000818066144480E18376849483543A7
:102FC00078400004000C28609B089BB293E7012224
:102FD0003749227308886381002800D144E70B80B9
:102FE000364B19688B005B1835499B008C4663444F
:102FF00019680A40802149010B431A6034E72D4AC1
:103000003949108888422FD011802C4A2C481468E6
:10301000364EA20011198900081806612A480E18B8
:1030200037683348354378400004000C286062E775
:1030300000211F4B61811888002800D10EE71980FC
:103040001E4B012019688B005B181D499B008C46A4
:10305000634419680840802149010B431860FDE66C
:103060006089FFF729FEFFE6144A1468A2001119CF
:10307000890040E703004B3313807BE703002D33C7
:10308000FF33138076E70D4A1468A20011198900F6
:103090009AE70A4A1468A2001119890029E7C04674
:1030A0001CB00220A0470120BBB0022068B0022063
:1030B0009AB002209CB00220CF53000040B0022002
:1030C00000000540CE5300000C000540E729000039
:1030D000FFFF0F00B4B002209EB00220F4140000E5
:1030E000F31400007A0A00003D0500003C050000D2
:1030F0009E020000F0B5DE4657464E464546E0B516
:10310000C84B87B005931C001B7B3F2B00D9F2E016
:103110006268C548944640229046984442465B0007
:103120005200815EC35E8D00049058004D1BC01894
:103130006A01C5004519551B65442A1293469A0039
:103140009A1AA76852014C069246641A5A0624013C
:10315000D21A641A12014E00E400D21A6418D20086
:1031600071184E01D218B61A66443612350001960F
:10317000CE00891940014018A2215943AB4E544456
:1031800031800026AA49E419C019241200120E80C9
:103190005946061BB146691A5D46A64EAD05E405C3
:1031A000AD0DE40D3560039525000294A24CA34EAD
:1031B0002560019CC005A405A40D3460A04CC00D81
:1031C00020604846C0B281460130C0B2CEB200286D
:1031D00000D197E1002398469A4BFF279C467F2316
:1031E0009A460B00039A3B409B4611004B46914682
:1031F000594403910193029B43449910534619404B
:103200004346090261441C02002E20D00023484698
:10321000C21892103A408A5C91464D468A4A12681A
:103220001219D5540133DAB29642F1D18146039B8B
:103230005C44854A9B103B40CB5C12681355434667
:10324000019A0133DBB2424503D09846D3E74B469F
:10325000EFE79146402290460599049A0B7B8F68D0
:1032600098445B00D35E4A68990094465A1A52010A
:1032700092465A06D21A1201D21AD200D21800204F
:10328000724C734D2070734C20704C46724806701F
:103290007248734E04704446FF202040049C400056
:1032A000205E44002418A4102C805D00ED185B1AE9
:1032B0006C499B100B806C4BAD101C808300C31AB3
:1032C0005B019B1A6344694A9B039B0B1360420694
:1032D000121A1201121AD3001B185344DB19644A44
:1032E000DB03DB0B3580136007B0F0BCBB46B24696
:1032F000A946A046F0BD5AB2002A49DB62684A4995
:10330000944640229046984442465B0052008E5EAE
:10331000CB5E72005800C0189219C500451904917F
:1033200051014D1B6544A7682912D4008B4614191E
:1033300099005A06591AD21A490112018A46D21A1C
:10334000B100711AD200D2184901891A61440912D8
:103350000D0001917106891B0901891BC90089199A
:103360004001401829005D46491B304D54442980D6
:103370007502AD1BAD00AD1B2D01AE1BE4192C4D2C
:10338000C0192412001276002E80051BA94603E7FF
:10339000BF2B6FD8626824499446402290469844D7
:1033A00042465B005200885ECB5E26005A06D21A67
:1033B00012014400D21A2418D2006501D218AD1AA5
:1033C000654404912912E500A9468B465900C918A5
:1033D000B7684C444E0134198600851BA9466E011E
:1033E000CD00AA465144761A9900591A49018A46D5
:1033F0004106091A0901091AC90008184946664414
:1034000050443512E419094EC019890124120012E2
:103410003180011B89464E46054901950E8059466B
:10342000691AB9E654B002201C790120A0B002202C
:10343000A2B002208CB0022090B0022084B0022002
:1034400088B002203CB90020247C0120B8B00220C2
:10345000A4B00220B9B00220B6B00220B7B002205A
:10346000A6B00220A8B00220AAB0022044B00220D8
:1034700048B002206268244894464022904698440E
:103480004146BF320A4052005B00815EC35E8D0040
:103490005A06D21A1201D21A4D1BD200D2186D014F
:1034A000AD1A5E00F618654404902812F500A9468E
:1034B00083464806401A0001401AC000A768401819
:1034C00074012418480041184E444801801B604490
:1034D00005129800181A8146002640018246C8004D
:1034E00008180A4950440E804946094E8901318026
:1034F0005946E419C019241200120195691A051BD6
:10350000A94649E69900BAE61C790120A0B002203C
:10351000A2B002200022314B70B51A7380229202B1
:103520005A60EB2252029A60012282B01A70FFF7B1
:1035300063FAFFF7DFFD2A4B2A4A00211A600020B8
:103540000722294BFDF7E8F8284B07220021282005
:103550001B78FDF7F5F8264B082200214020009348
:103560000823FDF77FFB234B072200216020FDF796
:10357000D3F8214B1B78012B14D0F8245D01ED1AF0
:10358000ED00ED1A0A351D4EEDB208230822002188
:1035900020000096FDF766FBA54203D0093CE4B28B
:1035A000B92CF2D10023164A1360164A1370164A3A
:1035B000118800290FD01380144B01211A68930041
:1035C0009B18134A9B00944663441A68114080225A
:1035D00052011343196002B070BDC04654B00220BE
:1035E000D4A30220648C022028730120BCB00220E6
:1035F000DC57012030730120BAB00220E8720120AC
:1036000068B00220BBB002209AB0022040B0022075
:1036100000000540F0B5DE4657464E464546E0B54B
:10362000D44BD54A1B788BB013700993D34B00222F
:103630001900E131FF311A7018338B42FBD1302170
:10364000CF4B5A5418315A5418311A701A765A54AA
:10365000CC4B1A70CC4B1B78092B00D971E1013B84
:103660009A00D318C94A9B009918D35C0391FF2B89
:1036700000D16CE1C64A96211278C9000892002256
:1036800091460692C34A4C46944605924E461A000D
:103690006144099F0291039B0133039393009B189C
:1036A000BD4A9B00D15CD5180823EA5E07910A2029
:1036B0002B5E00295DD0298A8846698A8A46089946
:1036C000032900D1EAE00420295EBC468B46059917
:1036D0002F008946297907980491019649462FE0E1
:1036E000049D0095029EB1421FD20226BC5F0625B2
:1036F0007E5F009DB1464D749505AD0B4D60DD05B7
:10370000ED0B0C748D60A400FD684C44CD60E500A9
:103710002C19A24D2401A9464C444C610124019E60
:103720000C700136F4B20194012442445344013830
:103730009205DB05C0B21831920DDB0D00280CD0CC
:103740005D46002DCCDA65460126AD0065440135A5
:10375000EDB2AC4600950696C4E76746019E079A0F
:1037600094465300059A63449446DB009C446346A8
:103770000593039B1A78FF2A8DD1069BA146B34679
:10378000002B00D1E1E07C4B1F704B46002B02D098
:103790005A467C4B1A70059B029A934206D200232C
:1037A000059A0299137018328A42FBD3089B032BA7
:1037B0006DD0039B5A1C5B780192FF2B00D1D2E0A5
:1037C00000229046764A9625944601229146754AF3
:1037D000ED009346654462460024AC460292019A8D
:1037E0007149013201929A00D2186F4B52009B1816
:1037F0008A5C924602215A5E0420195E50460028D7
:1038000031D0DD881E89029B00950390634513D259
:103810004D461D70BD00A8469505AD0B5D60CD05FC
:10382000ED0B9D605D465D6101254744A84601376B
:10383000FFB21C745F74DC60009D7118AA460138E9
:1038400052449205C905C0B21833920DC90D002823
:10385000DCD1039B029A9A465B0053449246DB00FC
:103860009A4453460293019B1B78FF2BB7D1029BCE
:1038700065469C464346002B01D03F4B1F70AC452C
:1038800005D20023624613701832AA42FBD30BB054
:10389000F0BCBB46B246A946A046F0BDBC462F00D0
:1038A00045460798A0460599019500960CE0019CB5
:1038B0005344A14601384A449205DB05C0B2183191
:1038C000920DDB0D002838D00C78012CEFD10425A7
:1038D0007C5F002C27DBE4B2A346029CA142E6D227
:1038E00002257C5F0626BD5F0C74A9465D464D74BB
:1038F0009505AD0B4D60DD05ED0BA400A1448D6079
:10390000FD684C46CD60254DE400A8464C4424019A
:1039100044444C610124009E0C700136F4B20094C2
:103920000124A046C3E76446A40064440134E4B221
:10393000A446A34601240694CFE744466746009E6A
:103940000DE71A4B0393062394E6099F1DE7104BDE
:1039500096221B78D20008930E4B099F9C46624426
:10396000059302921BE70E4B96259C46ED0065449D
:1039700087E7C04698B00220B5B002203CAE0220D6
:10398000DCA30220B0B00220BCB00220F8770120F6
:10399000B1B00220C8A40220A07501205C4A012019
:1039A0007CA902209C640120AC7801209878012039
:1039B00070B580268025184C76006378A27821782F
:1039C000E8B20135FFF730F80334B542F5D10023F2
:1039D000124A13491380134A1360134A13600122D9
:1039E0000A7012490A734B811149088800280ED0C9
:1039F0000B80104B19688B005B180F499B008C469D
:103A0000634419680A40802149010B431A6000226F
:103A10000A4B1A7070BDC0463C39012098B0022094
:103A2000B4B002204CB002202CAE02201CB0022008
:103A30009AB0022040B0022000000540AFB0022042
:103A4000F0B5DE464E4645465746E0B585B0FEF732
:103A5000D3FFFCF7D7FEFEF7FDFCBE4B00269846D1
:103A6000002443465D781F78002D00D15FE12000DF
:103A7000310001343A0017300A31013DE4B2FCF75D
:103A80006BFCEDB2D02C02D900240136F6B2002D29
:103A9000EDD102239C46E044202EE2D907224221A8
:103AA0006820AD4BFCF74CFF072262212820AB4B6E
:103AB000FCF746FF1E2306224A217C20FCF758FC17
:103AC0001D23062256216C20FCF752FC1C230622E3
:103AD00056218C20FCF74CFCA14B1022522178205F
:103AE00000931023FDF75AF90722722128209D4BDD
:103AF000FCF726FF0622722170209B4BFCF720FF6B
:103B0000072296210020994BFCF71AFF984B0722B9
:103B1000962150201B68FCF7B5FF072296219020C4
:103B2000944BFCF70DFF944B07229621C8201B688D
:103B3000FCF7A8FF0722AA216020904BFCF700FFAA
:103B40000722B42170208E4BFCF7FAFE0722BE211B
:103B500008208C4BFCF7F4FE0722C82128208A4B52
:103B6000FCF7EEFE07228221B820884BFCF7E8FE26
:103B70001E2306227C21E020FCF760FE1F23062284
:103B80008821E020FCF75AFE814B824D9A46824BF9
:103B900002939F235B0099461AE0012333707F4F05
:103BA00004223B007C21E820FCF7CAFE7C4C0C225E
:103BB00023008821E820FCF7C3FE02235B429C46D9
:103BC000029BE144043B02934B46402B00D1B2E000
:103BD0004B4600217348403BDBB203932A686B6875
:103BE00012184B412A606B6006F036F902000B0098
:103BF00028686968994200D989E000D184E02A6088
:103C00006B60FEF727FC684B674A1B884F46013301
:103C100013804A46FF231340644A5B00D35E32267A
:103C200018000E3F390070439B4606F099FF604B29
:103C300004B21C80029B390000229B5E1800704376
:103C4000984606F08DFF5B4B424618805A4B404227
:103C500018805A4B39001C805B465C06E41A6C23C2
:103C60005343E001C018704306F07AFF544B39000B
:103C70009C46544B604418804346E0005844800002
:103C80005844DB018000C01A704306F069FF039BB3
:103C9000464A9B085B00D35A5A02D21A92009A18DD
:103CA00092009B18D822D2019446DB006344C018CE
:103CB000454B188053461968444B50461960D02331
:103CC0001B065A68424B934303608B4341490B6088
:103CD000520225D58022190052003F4E1140134256
:103CE00000D05AE79B0217D531702C4F0C223B00B5
:103CF0007C21E820FCF724FE294C042223008821A3
:103D0000E820FCF71DFE58E7904200D877E7801ABC
:103D1000994105F0CFFF74E73378002BE5D03EE7FB
:103D200005B0F0BCBB46B246A946A046F0BD022392
:103D30009C46E04495E6FCF765FDE1239B00984630
:103D4000D0231B069946224B9B4623004446B0468F
:103D50001E0056E070680120387301204473012072
:103D6000E87101205C730120747301207C730120D1
:103D70002CAE0220307301204CB002208873012049
:103D8000947301209C730120BC730120D473012023
:103D900030AE0220107E0120187B0120DC73012050
:103DA000E07301201B41000098B002201C79012023
:103DB000A4B00220A6B00220A8B00220AAB002201F
:103DC0000080FFFFA0B00220A2B002202CB0022091
:103DD0000003700434AE0220B4B002200123424636
:103DE00013703B0004227C21E820FCF7A9FD33007E
:103DF0000C228821E820FCF7A3FD013C002C00D117
:103E0000C5E62A686B680021244812184B412A60D5
:103E10006B6006F021F802000B002868696899427F
:103E200032D82FD02A606B60FEF714FB1C4B1C4A63
:103E30001B8850460133138053461968194B19608B
:103E40004B465A685B46934303608B4316490B60AD
:103E5000520200D464E7802219005200114013423C
:103E6000BCD19B0215D5434619703B000C227C2126
:103E7000E820FCF765FD330004228821E820FCF7E8
:103E80005FFDBAE79042CDD9801A994105F012FF43
:103E9000CAE743461B78002BE7D0A2E71B4100008E
:103EA00098B002202CB0022034AE0220F0B5574664
:103EB0004E464546DE46E0B5E24EE34D3368E34C00
:103EC0009B462B68E24A9A4663688BB09846237BF0
:103ED000A46819009C46FF2340310B4061465B00FB
:103EE0004900985E895E83004A06521A1201521AEE
:103EF000C31AD20052185B019F1A474400940497DA
:103F00008C00BF030C1BBF0B37606601079646068B
:103F1000361A3601361AF600361803923200660158
:103F2000B146009E4A4401923200019EA410B1465F
:103F30004A44D603F60B2E60C64D0292A9465A4655
:103F40002D88AD1A4A46ED1915805246C24F3D885C
:103F5000AD1AAD193D804500C04E2818851035803A
:103F60004E007118BE4E8F103780BE4ABE4E12688A
:103F700034809146BD4CBE4A258006921468BD4AE5
:103F8000924612680592BC4A1268099262463F2A1C
:103F90006FD8CD004D195D1B029B039A1E12430181
:103FA0009B1AC2008018009A49019446091845449A
:103FB000434461442D121B120A12AA48AD05A90DF3
:103FC0000160F6050698F60D066050469B059B0DB0
:103FD0000360D205A848D20D02604A46A74DCEB272
:103FE000D0B22D78321AD2B25519A44FEDB252B2D6
:103FF0003D70002A00DAAEE1A14AA2490792127888
:10400000089169460D7DDEB2701BC1B28A469E4999
:104010009D4F097840B25144C9B23970002800DD83
:10402000B9E0069BE4B21968079DCBB2181BC0B279
:104030008218D2B240B22A70002800DA2AE18E4BF0
:1040400024211A686B465B181878D4B2211ACDB2B5
:10405000AC46089E49B2337803956344DBB23370B3
:1040600000293ADC0BB0F0BCBB46B246A946A046DC
:10407000F0BD55B28F01002D17DBCA00430189182E
:10408000591AC300C018079B009A9C466044944686
:1040900041440D12019960448C4667449446049B48
:1040A000674406121B123A1287E7BF2A00D9ADE116
:1040B000039A4501C600AD1A80194A011018009AEA
:1040C00045449446CA0089185B1A029A60444344E6
:1040D0002D1206121B1212126FE70130001B1B1863
:1040E000DBB20493654B521A1B7868489C46664BBA
:1040F0001B789B465B4B1B689946531C059300231A
:104100009A46634B624602935B469F1AFF23FFB2B7
:1041100098463B00070019006046049B5344DEB2FA
:10412000059B360253449C107F231C40029B2402B3
:104130009C466444584500D181E04A4600230D0066
:10414000009001924146019A9A1892100A403968EB
:10415000A25C89469446B14449466046009AD2180A
:104160000133D2B2DBB28854AB42EBD1019B2900C0
:1041700099462B0000984B4442469B101340E25C4A
:104180003B685B449A5553460133DBB29A46039B26
:104190005345C2D166E71B1A01330493002301354E
:1041A000AD1B4D19E9B20191089999460978384B30
:1041B000364802930B0205938B1ADBB29C467F2391
:1041C00098460391019B4B44DFB2049B4B449E10E5
:1041D000FF231E40029B9B46039B5E4493422CD0D0
:1041E00000236546009242461919891011400902C0
:1041F0008A5D9446009A99180268C9B2934662464D
:10420000090201335944DBB2CA55AB42EBD1AC468B
:10421000009A2B194146059D9B10AB460B401B0293
:10422000995D03685B44D9554B460133DBB299462F
:104230009A45C7D1079B1A78F3E62300EAE74B4675
:104240009AE7C04644B0022048B0022054B0022091
:104250001C790120A0B00220A2B00220A4B002204C
:10426000A6B002208CB00220A8B00220AAB0022082
:1042700090B0022084B0022088B00220B8B00220A2
:10428000B9B00220B7B00220B6B00220247C0120D1
:104290003CB900206948E41A0078E4B284466848D2
:1042A00005786848039500688146002C00D1C6E671
:1042B0001419E3B20493644B644802936346EB1A07
:1042C000DBB29846FF238B469A46110003004A460C
:1042D000604645469C4689465B469E107F231E40AD
:1042E000029B36029846039B4644984200D189E0DF
:1042F0004B4664461F02002300900192019A9918D0
:10430000524689101140725C9446009A6046D1185A
:10431000226801339046B8444246C9B2DBB25054D9
:10432000AB42EBD1A446019A0098AB1851469B10C2
:104330000B40F15C039C6346A0461B684344D9557F
:104340004B460133DBB2994601239846049BC34494
:104350009945C1D173E63E4F3E4A0897801B3F788E
:10436000C0B2079201971278002800D149E62818B8
:10437000C3B20393344B8C4602933B020493BB1AA3
:10438000DBB298467F239946304863469F10FF234F
:104390001F40029B9B46019B5F449A4230D0002302
:1043A000464600924A461919891011400902CA5D11
:1043B0009046009AD1180268C9B293464246090253
:1043C00001335944DBB24A55B342EBD1B046009AAF
:1043D00033194946049E9B10B3460B401B02D95D1E
:1043E00003685B44595501239B460135039BEDB29D
:1043F000DC449D42C9D15346079A1B68127800E6F7
:104400002300E6E74B461F0213008FE7049BCA0018
:104410001D12019B8918DE19009F4301BC46591AE1
:1044200041440B12079966448C46C20082186244CC
:10443000BC46624436121212BFE5C046B8B0022034
:10444000B6B002208CB002203CB90020247C0120B0
:10445000B7B00220B9B00220F0B54E46DE4657464E
:104460004546E0B5B94E93B03378012B09D0022B05
:1044700000D113E113B0F0BCBB46B246A946A0463A
:10448000F0BD7368B1681D12B14B09121B68B14AC7
:10449000ED1AB14B1B78ED18EDB22800AF4B083880
:1044A0001B78C0B2083BC918AD4B1B68C91AAD4B8D
:1044B000CCB21E680F94711DFF31914200D3E5E02C
:1044C000EA1FD2B29146AA1FD2B290466A1FD2B258
:1044D00002922A1FD2B20392EA1ED2B20492AA1EFC
:1044E000D2B205926A1ED2B206926A1CD2B207926A
:1044F000AA1CD2B20892EA1CD2B209922A1DD2B2E8
:104500000A926A1DD2B227000B92AA1DD2B20C9257
:104510000D95EA1D45461037D2B2FFB29446B84613
:10452000914A0E9500E01E6821020D18AA465746D2
:104530008A46751C1D601568CA44ED5D5746357086
:104540001E680134751C1D601568E4B2ED5D3570A0
:104550000E9D1E686D18AA465746751C1D6015688D
:10456000ED5D3570029D1E68AA468A445746751C4B
:104570001D601568ED5D3570039D1E68AA468A446E
:104580005746751C1D601568ED5D3570049D1E68ED
:10459000AA468A445746751C1D601568ED5D357046
:1045A000059D1E68AA468A445746751C1D601568FD
:1045B000ED5D3570069D1E68AA468A445746751CF7
:1045C0001D601568ED5D35700D9D1E686D18AA465D
:1045D0005746751C1D601568ED5D3570079D1E689A
:1045E000AA468A445746751C1D601568ED5D3570F6
:1045F000089D1E68AA468A445746751C1D601568AA
:10460000ED5D3570099D1E68AA468A445746751CA3
:104610001D601568ED5D35700A9D1E68AA468A44C6
:104620005746751C1D601568ED5D35700B9D1E6845
:10463000AA468A445746751C1D601568ED5D3570A5
:104640000C9D1E68AA468A445746751C1D60156855
:104650006144ED5D35701E68751C1D601568695CF0
:104660003170444500D05EE71A68511C1960107023
:104670001A68511C19600F9911701A68511C196041
:10468000102111701A68541C1C601170374B1022D5
:1046900000930F991023FCF781FBEBE67368344A13
:1046A0001D122B4B1B68ED1A2B4B1B78ED18EDB22E
:1046B0002800B36808381912284BC0B21B78083B91
:1046C000C918274B1B68C91ACCB21094737B9B087E
:1046D0001B029B181193234B1E4A1F68791DFF3143
:1046E000914200D3FCE0EA1FD2B20E92AA1FD2B2CE
:1046F0000D926A1FD2B20C922A1FD2B20B92EA1EFE
:10470000D2B20592AA1ED2B20A926A1ED2B20992FF
:104710006A1CD2B20892AA1CD2B20792EA1CD2B288
:1047200006922A1DD2B291466A1DD2B29046AA1DA7
:10473000D2B29446EA1DD2B2049222001032D2B212
:1047400003920F95084A029015E0C04654B002202B
:104750008CB00220D4A30220B8B00220B9B002204D
:1047600090B00220D4A30220247C0120E871012013
:104770009C5C01201F68029821024518AA465046F9
:104780007D1C1D6015680134285CE4B238700E98F9
:104790001F6882468A445546781C18601068405D40
:1047A00038700D981F6882468A445546781C1860F8
:1047B0001068405D38700C981F6882468A445546E0
:1047C000781C18601068405D38700B981F6882462E
:1047D0008A445546781C18601068405D387005980A
:1047E0001F6882468A445546781C18601068405DF0
:1047F00038700A981F6882468A445546781C1860AB
:104800001068405D387009981F6882468A44554692
:10481000781C18601068405D38700F981F68401849
:1048200082465546781C18601068405D38700898BC
:104830001F6882468A445546781C18601068405D9F
:10484000387007981F6882468A445546781C18605D
:104850001068405D387006981F6882468A44554645
:104860008A46781C18601068CA44405D55468A46DE
:1048700038701F68C244781C18601068405D554647
:104880008A4638701F68E244781C18601068405DE2
:10489000554638701F68781C18601068405D387085
:1048A00004981F688246781C186010685144415C67
:1048B00039700399A14200D05CE71A680298511C34
:1048C000196010701A68511C1960109911701A68DB
:1048D000511C1960102111701A68541C1C60117051
:1048E000119B1022009310991023FCF757FA737B49
:1048F0000133DBB27373202B00D0BBE50023337090
:10490000B8E5C046F0B557464E464546DE46CD4B67
:10491000E0B59946CC4BCD4F984693B03A78002AF3
:1049200000D122E1494640467B6809681B120068B5
:104930001C04240C814200DB23E1A14200DD14E1D0
:10494000A04200DA11E1B8680412C14825040668E3
:10495000C0482D0C0068864200DB19E1AE4200DD44
:1049600003E1A84200DA00E1022A00D118E1032A9B
:1049700000D122E27A7CCF2A00D821E2C420D03AAA
:10498000121101324243B44812181192B34A1578F9
:10499000B34A6D1AED18B34BEDB21978B24B073923
:1049A000891B1E680C193100E81FE4B2C831C0B27F
:1049B0001094914200D3D1E0AA1FD2B203926A1F91
:1049C000D2B204922A1FD2B20592EA1ED2B2069245
:1049D000AA1ED2B294466A1ED2B207926A1CD2B202
:1049E0000892AA1CD2B20992EA1CD2B20A922A1DDB
:1049F000D2B20B926A1DD2B20C92AA1DD2B20D9203
:104A000022000E32D2B2029262469849BC460E95FE
:104A10000F9200E01E6822021518AA465746751C20
:104A20001D600D680134ED5DE4B23570039D1E68B4
:104A3000AA4692445746751C1D600D68ED5D3570A1
:104A4000049D1E68AA4692445746751C1D600D6859
:104A5000ED5D3570059D1E68AA4692445746751C4B
:104A60001D600D68ED5D3570069D1E68AA46924476
:104A70005746751C1D600D68ED5D35700F9D1E68F5
:104A80005519AA465746751C1D600D68ED5D3570B9
:104A9000079D1E68AA4692445746751C1D600D6806
:104AA000ED5D35700E9D1E685519AA465746751C5A
:104AB0001D600D68ED5D3570089D1E68AA46924424
:104AC0005746751C1D600D68ED5D3570099D1E68AB
:104AD000AA4692445746751C1D600D68ED5D357001
:104AE0000A9D1E68AA4692445746751C1D600D68B3
:104AF000ED5D35700B9D1E68AA4692445746751CA5
:104B00001D600D68ED5D35700C9D1E68AA469244CF
:104B10005746751C1D600D68ED5D35700D9D1E6856
:104B2000AA46751C1D600D685244AA5C3270029A38
:104B3000A24200D06EE71A686746511C19601070D7
:104B40001A68511C1960109911701A68511C19606B
:104B50000E2111701A68541C1C601170119B0E22DA
:104B6000009310990E23FCF719F9414B18379F4217
:104B700000D0D3E613B0F0BCBB46B246A946A0466F
:104B8000F0BDA04200DBDEE6A14200DCDBE6ECE7A4
:104B9000A84200DBE8E6AE42E7DC022A00D0E6E607
:104BA0002E4A1278521AD318DBB27A7C981F9C4690
:104BB0002C4BC0B21978D3009B182E4A1B019B18AE
:104BC0000F93294B06391D68891B0C192900244AAB
:104BD000E4B294310E94914200D3DDE06246053A8E
:104BE000D2B203926246043AD2B204926246033AC7
:104BF000D2B205926246023AD2B206926246013AB7
:104C0000D2B2079262460132D2B2089262460232B2
:104C1000D2B2099262460332D2B20A92624604329A
:104C2000D2B226000B9262460C360532D2B2F6B2F0
:104C300002923200060060460C49BC460C900D9270
:104C40001BE0C0468CB0022084B002207CA9022068
:104C500090B0022088B002209C640120B8B00220ED
:104C6000D4A30220B9B00220D4A30220247C0120C6
:104C70002CAE02201C5801201D6822029019824689
:104C80005746681C186008680134C05DE4B228709B
:104C900003981D68824692445746681C186008684D
:104CA000C05D287004981D68824692445746681C6F
:104CB00018600868C05D287005981D688246924497
:104CC0005746681C18600868C05D287006981D6803
:104CD000824692445746681C18600868C05D287078
:104CE00007981D68824692445746681C18600868F9
:104CF000C05D28700C981D68101882465746681CC5
:104D000018600868C05D287008981D688246924443
:104D10005746681C18600868C05D287009981D68AF
:104D2000824692445746681C18600868C05D287027
:104D30000A981D68824692445746681C18600868A5
:104D4000C05D28700B981D68824692445746681CC7
:104D500018600868C05D287002981D688246681C4B
:104D6000186008685244825C2A700D9A944283D17C
:104D70001A683000511C196016701A686746511C79
:104D800019600E9911701A68511C19600C2111706C
:104D90001A68541C1C6011700F9B0C2200930E9912
:104DA0000C23FBF7FBFF7B7C0133DBB27B74082B0E
:104DB00000D0DAE6053B3B70D7E6034A1192E5E501
:104DC000024A1192E2E5C046AC6701209C640120D2
:104DD000F0B557464E464546DE46B74BE0B59946D8
:104DE000B64BB74F984691B03A78002A00D107E108
:104DF000494640467B6809681B1200681C04240C65
:104E0000814200DB08E1A14200DDF9E0A04200DAC6
:104E1000F6E0B8680412AB4825040668AA482D0CD1
:104E20000068864200DBFEE0AE4200DDE8E0A8421A
:104E300000DAE5E0012A00D1FDE0A44A15787A7C89
:104E40006D1AED18A24BEDB21B78A81F063B9E1BF6
:104E5000D3009B189F4A1B019B180F939E4B34193C
:104E60001E689E4A3100E4B29431C0B20E94914261
:104E700000D3B6E06A1FD2B203922A1FD2B20492C4
:104E8000EA1ED2B20592AA1ED2B206926A1ED2B20F
:104E900007926A1CD2B20892AA1CD2B20992EA1CEA
:104EA000D2B20A922A1DD2B294466A1DD2B20B9295
:104EB000220061460C32D2B20292BC46884A0C955E
:104EC0000D9100E01E6821020D18AA465746751C78
:104ED0001D6015680134ED5DE4B23570039D1E68F8
:104EE000AA468A445746751C1D601568ED5D3570ED
:104EF000049D1E68AA468A445746751C1D601568A5
:104F0000ED5D3570059D1E68AA468A445746751C9E
:104F10001D601568ED5D3570069D1E68AA468A44C1
:104F20005746751C1D601568ED5D3570079D1E6840
:104F3000AA468A445746751C1D601568ED5D35709C
:104F40000C9D1E684D19AA465746751C1D601568B4
:104F5000ED5D3570089D1E68AA468A445746751C4B
:104F60001D601568ED5D3570099D1E68AA468A446E
:104F70005746751C1D601568ED5D35700A9D1E68ED
:104F8000AA468A445746751C1D601568ED5D35704C
:104F90000D9D1E684D19AA465746751C1D60156863
:104FA000ED5D35700B9D1E68AA46751C1D60156869
:104FB0005144695C317002998C4283D11A6867460A
:104FC000511C196010701A68511C19600E991170EB
:104FD0001A68511C19600C2111701A68541C1C604D
:104FE00011700F9B0C2200930E990C23FBF7D6FE39
:104FF0007B7C0133DBB27B74082B01D100233B7037
:10500000384B18379F4200D0EEE611B0F0BCBB46DB
:10501000B246A946A046F0BDA04200DBF9E6A14297
:1050200000DCF6E6ECE7A84200DB03E7AE42E7DC93
:10503000012A00D001E7254A1578284A6D1AED1893
:10504000234BEDB21B78A81F063B9E1B7B693419CE
:105050000F93214BE4B21E68C0B2310094310E941C
:10506000914200D3CFE06A1FD2B294462A1FD2B237
:105070000392EA1ED2B20492AA1ED2B205926A1E0E
:10508000D2B206926A1CD2B20792AA1CD2B208927D
:10509000EA1CD2B209922A1DD2B20A926A1DD2B279
:1050A0000B92220061460C32D2B20292BC460C4AEC
:1050B0000C950D9119E0C0468CB0022084B00220FE
:1050C000C8A4022090B0022088B00220B8B002200C
:1050D000B9B002201C580120D4A30220D4A302207E
:1050E000247C012078A902201E6821020D18AA46FE
:1050F0005746751C1D6015680134ED5DE4B23570CE
:105100000D9D1E684D19AA465746751C1D601568F1
:10511000ED5D3570039D1E68AA468A445746751C8E
:105120001D601568ED5D3570049D1E68AA468A44B1
:105130005746751C1D601568ED5D3570059D1E6830
:10514000AA468A445746751C1D601568ED5D35708A
:10515000069D1E68AA468A445746751C1D60156840
:10516000ED5D35700C9D1E684D19AA465746751C9D
:105170001D601568ED5D3570079D1E68AA468A445E
:105180005746751C1D601568ED5D3570089D1E68DD
:10519000AA468A445746751C1D601568ED5D35703A
:1051A000099D1E68AA468A445746751C1D601568ED
:1051B000ED5D35700A9D1E68AA468A445746751CE7
:1051C0001D601568ED5D35700B9D1E68AA46751C47
:1051D0001D6015685144695C317002998C4283D11D
:1051E0001A686746511C196010701A68511C1960C2
:1051F0000E9911701A68511C19600C2111701A68EF
:10520000541C1C6011700F9B0C2200930E990C23F0
:10521000FBF7C4FDF4E6C046F0B557464546DE460A
:105220004E46E0B5A74BA84F984687B024E181428F
:1052300000DD1DE1824200DA1AE1A448BA6805687F
:10524000A348121200681404240C854200DB28E1F4
:10525000A54200DD0CE1A04200DA09E19D48047896
:10526000641AE418E0B203900238C3B21800029343
:10527000994B1B785B1B9A18D2B2911ECBB29C46FD
:105280007B69964D0593964B19680E001436AE4215
:1052900000D3E5E0644626023418A1464846914D05
:1052A0004C1C1C602C68205C012408700398411E73
:1052B000C9B270188246186881464C441C60544636
:1052C0002868005D824648465446047003980124CD
:1052D00030188246186881464C441C605446286841
:1052E000005D824648465446047003980130C4B2BB
:1052F000A146186804944E440124814628684C4411
:105300001C60865D48460670561E029CF6B2360248
:10531000A01982461868012481464C441C605446FA
:105320002868005D824648465446047088198246C3
:105330001868012481464C441C6054462868005D6E
:1053400082464846544604700398012480198246D8
:10535000186881464C441C6054462868005D8246AB
:10536000484654460470049C1868A14601244E44E3
:10537000814628684C441C60865D4846029C067045
:105380001602A01982461868012481464C441C600C
:10539000544628680132005DD2B2824648465446DF
:1053A0000470881982461868012481464C441C60A8
:1053B000544628681202005D8918824648465446C1
:1053C00004700398012480198246186881464C4471
:1053D0001C6054462868005D824648465446047066
:1053E000049C1868A14601244E44814628684C4418
:1053F0001C60865D4846029C0670A01881464C469B
:105400001E68701C18602868005D30701E68701C73
:1054100018602868415C3170039928688C181968F5
:105420004E1C1E60045D02980C70049C1968A14615
:105430002C684D1C1D604A44A25C0A701A68511CFD
:10544000196010701A68511C1960614611701A6851
:10545000511C1960042111701A68541C1C601170D1
:10546000059B04220093614604230298FBF796FCF7
:105470001D4B18379F421ED03B78002BF8D01B4A9B
:105480007B68116842461B1212681804000C914296
:1054900000DACCE6824200DBCFE6814200DCCCE6DB
:1054A000E6E7A04200DBD9E6A54200DCD6E60E4BDB
:1054B00018379F42E0D107B0F0BCBB46B246A946C0
:1054C000A046F0BD84B002203CAE022090B0022085
:1054D00088B00220B8B00220B9B00220D4A30220C4
:1054E000D4A30220247C01201CB002208CB0022016
:1054F000F0B557464E464546DE46754BE0B59946F3
:10550000744B754F98468DB03B78002B00D1C3E0AB
:105510004A4641467B6812681B1209681804000C51
:105520008A4200DBC5E0824200DDB5E0814200DA5C
:10553000B2E0B96869480C12694900680968250435
:105540002D0C814200DBBBE0A94200DDA4E0A842B3
:1055500000DAA1E063480678B61AF618624BF6B294
:105560001B78624A043B591A7B6909190B93604BFB
:10557000CCB21D68301F29004431C0B20A94914258
:1055800000D382E0F21ED2B20392B21ED2B20492D3
:10559000721ED2B20592721CD2B20692B21CD2B264
:1055A0009446F21CD2B2079222000832D2B2029282
:1055B00062465049BC460896099200E01D682202E6
:1055C0001618B24657466E1C1E600E680134F65D12
:1055D000E4B22E70039DAA46924457461D686E1C85
:1055E0001E600E68F65D2E70049DAA4692445746D2
:1055F0001D686E1C1E600E68F65D2E70059DAA4625
:10560000924457461D686E1C1E600E68F65D2E7033
:10561000089D5519AA4657461D686E1C1E600E68E7
:10562000F65D2E70069DAA46924457461D686E1C74
:105630001E600E68F65D2E70099D5519AA465746E4
:105640001D686E1C1E600E68F65D2E70079DAA46D2
:105650001D6852446E1C1E600E68B25C2A70029A6D
:105660009442ABD11A686746511C196010701A68D1
:10567000511C19600A9911701A68511C196008218F
:1056800011701A68541C1C6011700B9B0822009347
:105690000A990823FBF782FB0F4B183778339F4298
:1056A00000D031E70DB0F0BCBB46B246A946A046DB
:1056B000F0BD814200DB3CE7824200DC39E7EBE7EA
:1056C000A84200DB46E7A94200DC43E7E4E7C04626
:1056D0008CB0022084B00220DCA3022088B002201B
:1056E00090B00220B8B00220B9B00220D4A30220AA
:1056F000D4A30220247C0120224B30B51A78012A41
:1057000026D1214A11688A0523D41A7BC80202D502
:105710000132D2B21A73C90520D51C4C51000D5F5D
:105720005968E80F40194010691809188903890B56
:10573000403259601100FF220A405200105F9A68FF
:10574000111AC20F121852108A1AD203D20B9A6081
:1057500030BD1A7B013AD2B21A73D7E70B48510019
:10576000095E5C684032A44661448903890B596034
:10577000FF210A405200125E99688A1AD203D20BA6
:105780009A60E5E754B0022030AE02201C79012077
:10579000F0B5DE4657464E464546CF4BE0B51A7843
:1057A00087B091465A689B6892460393CB4BCC4C8A
:1057B0009B461B680593002304939623DB009846C1
:1057C000A0442378012B52D10C23E65E6368657CEC
:1057D000F2180E23E75EA3689203FB18DB03013582
:1057E000217C920BDB0BEDB26260A360657405292E
:1057F0003DD8BC48890041588F46BB4A6B009B5A34
:105800002900A381FF2340310B405B009B5AE381B9
:105810006B072CD16369B5491A0090328A4200D1D6
:1058200041E1626118344445CBD1049B002B02D086
:105830005B46059A1A6007B0F0BCBB46B246A94663
:10584000A046F0BD2A00FF2340321340A64A5B0069
:105850009A5EAD09D30F9B185B10013BFF3BE381C0
:105860001035EB00A24A5B191B019B1863611834C9
:105870004445A6D1D9E7CF2D00D928E19D496161E2
:10588000002DF4D149460129F1D15146891A01D59B
:105890005146511AEC2009128000814200DA51E190
:1058A000954884466144039DE81A00D5581BD825C5
:1058B00000126D00A84200DB8EE15028D7DC404387
:1058C00049430918C82040018142D0DC8B490D00B2
:1058D0002878002800D0BFE1012028708848AB60FC
:1058E00010188003800B6860FE200002E860854885
:1058F00068613C2028743B380490834805908020E0
:105900000D00000110188003800B2E78002E00D0AF
:105910009CE1686080208000E8607A480126686128
:105920003C2028743B38049077482E70AB6005907B
:105930000D0073481818C003C00B2E78002E00D03D
:105940007EE1A860FE200006E8606E4801266861DE
:105950003C2028743B3804906B482E706A60059098
:105960008020000184466344DB03DB0B08780028B9
:1059700000D05FE18B6080239B04CB60614B0120F2
:105980004B613C230B743B3B04935F4B08704A60B4
:1059900005936CE74946012900D07AE05146891AFF
:1059A000081E01DA5046101A0212EC2080008242D2
:1059B00000DAB3E050488446624403980190C01A6C
:1059C0008446029002D501981B1A9C466346D82053
:1059D0001B124000834200DAB0E04C488446634426
:1059E00052435B43D318C8225201934251DC474BC8
:1059F0000912994200DBA9E08023DB009C46614448
:105A0000029B434A1B12934200DBADE080229200CE
:105A1000944663440A001A4300D1B1E0002B00DA37
:105A2000F5E0002900DADBE03A4A0292994200DA16
:105A300024E1180205F094F8029A135C01933300F4
:105A40003B4300D1F4E0002F00DAA3E0002E00DA9F
:105A500008E1BE4200DA1CE13100380205F080F8AE
:105A6000029B019A1B5CD21AD2B20192019A5F2A60
:105A700000D8A5E0A02A0CD90433DBB21800FF221D
:105A800040301949024052005B00525A5B5AA281D1
:105A9000E3816B0700D0EAE663691F491A00903280
:105AA0008A4200D0BDE6B13BFF3B6361DFE6EB0617
:105AB00000D0DCE6AB0635D563690E491A007F429B
:105AC0009032A781E6818A42EDD06261AAE6D03D9C
:105AD0002D110D35C5E6C04654B0022068B0022035
